:020000040000FA
:100000000A128A11FC2FFF1B0D2883137F188317F8
:100010000008840A0319FF0A08007F087F398A0054
:0A0020000408840A0319FF0A820095
:100D5800F000831203130C1EB22EB32EAD2E7008B2
:100D6800990008000A128A11EA260A128A110A1240
:100D78008A111F270A128A11BB2E0A128A1100280B
:100D88007330F3007308F600CF2E77080A128A1121
:100D9800AC260A128A117208F4007108F300F10AED
:100DA8000319F20A740883120313FF0073088400FE
:100DB8000A128A1103200A128A11F5007508F70031
:100DC8007708031DE82EE92EC92E0800831603179D
:100DD8008801890183160313850186018312031391
:100DE80085018601831603130F178F160F160F142C
:100DF800831203130C13831603130C170B178B178B
:100E08008C160C16831203130C128C128316031300
:100E180018121815831603178715CF308316031376
:100E280099009A018312031398171813181683163A
:100E38000313981608000330FA008A30F900553079
:100E4800F800F80B252FF90B252FFA0B252F2C2F3F
:100E5800F430F1008830F2000A128A11C4260A120E
:100E68008A110330FA008A30F9005530F800F80B7F
:100E78003B2FF90B3B2FFA0B3B2F422F8230F1000F
:100E88008830F2000A128A11C4260A128A11033025
:100E9800FA008A30F9005530F800F80B512FF90B99
:100EA800512FFA0B512F582FC430F1008830F2001F
:100EB8000A128A11C4260A128A110330FA008A30EB
:100EC800F9005530F800F80B672FF90B672FFA0B6C
:100ED800672F6E2FDC30F1008830F2000A128A1179
:100EE800C4260A128A110330FA008A30F9005530F4
:100EF800F800F80B7D2FF90B7D2FFA0B7D2F842F2F
:100F08000B30F1008930F2000A128A11C4260A1245
:100F18008A11831203138C1E922F932F8D2F313039
:100F28001A06031D982F992FAF2F0330FA008A3025
:100F3800F9005530F800F80B9F2FF90B9F2FFA0B8B
:100F48009F2FA62F5A30F1008830F2000A128A111A
:100F5800C4260A128A113230831203131A06031D9B
:100F6800B62FB72FC82F0030F1008830F2000A12D0
:100F78008A11C4260A128A11831203138C1EC52FE4
:100F8800C62FC02F1A08850033301A06031DCD2F2F
:100F9800CE2FDF2F2D30F1008830F2000A128A118F
:100FA800C4260A128A11831203138C1EDC2FDD2F2C
:100FB800D72F1A08860034301A06031DE42FE52FB0
:100FC800FB2F0330FA008A30F9005530F800F80B8F
:100FD800EB2FF90BEB2FFA0BEB2FF22FA930F100C7
:100FE8008830F2000A128A11C4260A128A110800EF
:100FF80083010A128A11B62E0D34203449346E3416
:101008007334653472347434613472342034633424
:101018006134723461346334743465347234203426
:101028007034613472346134203463346F346C3416
:101038006F34633461347234203465346E34203450
:1010480050344F345234543441343A3420340D340B
:1010580000340D34203449346E34733465347234BA
:1010680074346134723420346334613472346134DA
:1010780063347434653472342034703461347234B7
:101088006134203463346F346C346F3463346134C6
:101098007234203465346E34203450344F34523432
:1010A800543442343A3420340D3400340D3420346E
:1010B800573441344F3420345334493445344E3452
:1010C80054344F34203451345534453420344D345D
:1010D800453420344734553453345434413420345F
:1010E800443445344D34413453344934413455340F
:1010F80055345534553420340D3400340D342034EF
:1011080031342E34203444346534733470346C34C0
:101118006534673461347234203463346134643440
:1011280065346E3461342034643465342034633477
:1011380061347234613463347434653472346534C0
:1011480073343A3420340D3400340D3420344334AD
:101158006F346C346F3463346134723420347734D0
:1011680061346F34203465346E34203479346F340C
:101178007534743475346234653420340D34003475
:101188000D34203432342E342034443465347334EE
:1011980070346C34653467346134723420345034BC
:1011A8004F345234543441343A3420340D340034FA
:1011B8000D34203433342E342034443465347334BD
:1011C80070346C346534673461347234203450348C
:1011D8004F345234543442343A3420340D340034C9
:1011E8000D3420344534733463346F3467346134D8
:1011F800203475346E34613420346F347034633481
:1012080069346F346E343A3420340D3400340D347C
:10121800203434342E34203442344F344E34553450
:08122800533420340D3400346E
:04400E00C430FF3F7C
:00000001FF
