:020000040000FA
:060000000A128A110E280D
:10000800FE00030EF2000408F3000A08F4000A12C6
:100018008A1198280A128A11112883132A30FD00A0
:100028000230FE003930FF00203084000A128A11A5
:100038002A220A128A11B401B501B601B701B80122
:10004800B901BA01BB01F501F601F701F801830115
:100058000A128A11F52983120313B001AB1F352840
:1000680036283D28AA09AB09AA0A0319AB0AB00128
:10007800B00AAD1F402841284A28AC09AD09AC0A8E
:100088000319AD0A0130AE002E08B006B101B20165
:100098002A082B040319512852288928AF01AF0ACE
:1000A800602801300310AA0DAB0DFF3E031D562832
:1000B8000130AE002E08AF07AB1F6328642855280F
:1000C80001300310B10DB20DFF3E031D65282B084A
:1000D8002D02031D71282A082C02031C7428752878
:1000E8007C282A08AC022B08031CAD03AD0231148E
:1000F80001300310AB0CAA0CFF3E031D7D28013014
:10010800AF02031D882889286428300803198D2820
:100118008E289328B109B209B10A0319B20A320824
:10012800AB003108AA0008000B1D9B289C28D92881
:1001380083120313860177087804031DA428A528D1
:10014800B228061106143A08203E840083130008DA
:1001580088000130F7000030F800D62877037804CB
:10016800031DB728B828C528061086143808203E6D
:1001780084008313000888000230F7000030F8007C
:10018800D628023077067804031DCB28CC28D62839
:10019800061586103608203E840083130008880060
:1001A800F701F801D93081000B11831203130C1FDA
:1001B800DE28DF28F3281F0CF000700C0F39003AF6
:1001C800031DE728E828EB281E088700F2281E08E8
:1001D800F000F1017008F5007108F6000C137408BE
:1001E8008A0073088400720E8300FE0E7E0E0900DA
:1001F80083120313B001AD1F022903290A29AC0990
:10020800AD09AC0A0319AD0AB001B00AAB1F0D293C
:100218000E291329AA09AB09AA0A0319AB0A2A0845
:100228002B040319182919294829AF01AF0A2729CE
:1002380001300310AA0DAB0DFF3E031D1D2901302F
:10024800AE002E08AF07AB1F2A292B291C292B0823
:100258002D02031D31292A082C02031C34293529B3
:100268003B292A08AC022B08031CAD03AD02013060
:100278000310AB0CAA0CFF3E031D3C290130AF0252
:10028800031D472948292B29300803194C294D29D2
:100298005229AC09AD09AC0A0319AD0A2D08AB0007
:1002A8002C08AA000800643083120313AA00003047
:1002B800AB007608AD007508AC000A128A112F2031
:1002C8000A128A11831203132B08B7002A08B600F2
:1002D8006430AA000030AB007608AD007508AC00A9
:1002E8000A128A11FC200A128A11831203132B089E
:1002F800B5002A08B4000A30AA000030AB0035085F
:10030800AD003408AC000A128A112F200A128A1193
:10031800831203132B08B9002A08B8000A30AA0070
:100328000030AB003508AD003408AC000A128A1161
:10033800FC200A128A11831203132B08BB002A0817
:10034800BA000800033083160317880089010330B8
:10035800831603138500860187018801831203131E
:100368008501860187018801831603130F178F16ED
:100378000F160F148B178B160B1181118112011593
:1003880081140114D93083120313810083160313D7
:100398009F131F129F12831203131F083F394038FF
:1003A8009F00C3309F05843083120313AA00AA0B51
:1003B800DB290000831203131F14843083120313F4
:1003C800AA00AA0BE5290000831203130C13831655
:1003D80003130C170B178B178B160B11F701F8016A
:1003E80008000A128A11A6210A128A11831203131D
:1003F8009F140A128A1157210A128A1183120313B1
:100408009F18072A082AFD291F0CB300330C0F393F
:10041800003A031D102A112A162A1F08C339043866
:100428009F00182AC3309F05843083120313B3003A
:10043800B30B1C2A0000831203139F14FD290A1210
:100448008A110E287E088A007F0882000A128A1103
:1004580026220A128A118000840A04087D060319DC
:100468000034FF0A0319FE0A2A2A3F3406345B3493
:0E0478004F3466346D347D3407347F3467347E
:04400E00C430FF3F7C
:00000001FF
