:020000040000FA
:060000000A128A110C280F
:10000800FE00030EF0000A08F1000A128A116428A3
:100018000A128A110F2883010A128A1146288316A8
:10002800031788018901831603138501860183124A
:10003800031385018601831603130F178F160F16F6
:100048000F14831203130C13831603130C170B17C7
:100058008B178C16831203138C1283160313181232
:100068001815831603178715CF30831603139900C5
:100078009A0183120313981718131816831603137B
:10008800981608000A128A1113200A128A110630DB
:10009800F4001330F300AD30F200F20B5128F30BEB
:1000A8005128F40B51285828831203130C1E5D287D
:1000B8005E284B286A3099004B280A128A110C28AE
:1000C800831203138C1E69286A286C281A08860074
:1000D80071088A00700E8300FE0E7E0E0900003043
:0C00E8008A000408840A820700346A348D
:04400E00C430FF3F7C
:00000001FF
