:020000040000FA
:060000000A128A110C280F
:10000800FE00030EF1000A08F2000A128A11922873
:100018000A128A110F2883010A128A116B280330E9
:10002800831603178800890103308316031385009C
:10003800831203138501831603130F178F160F16E8
:100048000F149F131F129F12831203131F083F39A7
:1000580080389F00C3309F058530F300F30B3228AA
:10006800831203131F148530F300F30B392883160A
:10007800031307158714FA3092003F3083120313D5
:1000880097051D08F0390C389D001708F0390C3811
:1000980097000F3095000F309B00CF3097051D1249
:1000A8009D128C100330920412158C1C5C285D285C
:1000B80059288C1083160313071187108312031312
:1000C8000C13831603130C170B178B1708000A124F
:1000D8008A1113200A128A11831203139F149F187E
:1000E8007628772873281F0CF400740C0F39003A0F
:1000F800031D7F28802885281F08C33904389F00DE
:100108008728C3309F058530F400F40B89288312B3
:1001180003139F1473280A128A110C2883120313DD
:100128000C1F97289828AF281F0CF000700C0F3967
:10013800003A031DA028A128A8281E08F0000310D3
:10014800700C7D3E9500AE281E08F0000310700C60
:100158007D3E9B000C1372088A00710E8300FE0E10
:040168007E0E0900FE
:04400E00C430FF3F7C
:00000001FF
