:020000040000FA
:060000000A128A110C280F
:10000800FE00030EF1000A08F2000A128A111928EC
:100018000A128A110F280A128A1172200A128A11EA
:10002800F30083010A128A1169280B1D1C281D2858
:1000380026280130F0007008831203138807D9308E
:1000480081000B110B1C29282A283B288312031333
:1000580006182F28302833280708013E87008618FD
:10006800362837283A280708FF3E87000B10720801
:100078008A00710E8300FE0E7E0E09008316031798
:1000880088018901033083160313860087018801DC
:1000980083120313860187018801831603130F1740
:1000A8008F160F160F148B178B160B1181118112D7
:1000B800011581140114811315149514161496143E
:1000C800D93083120313810008000A128A114220D2
:0E00D8000A128A116E280A128A110C280134AD
:04400E00C430FF3F7C
:00000001FF
