:020000040000FA
:060000000A128A110E280D
:10000800FE00030EF1000408F2000A08F3000A12C9
:100018008A118E280A128A11112883132A30FD00AA
:100028000130FE00EA30FF00203084000A128A11F5
:10003800DB210A128A11F701F80183010A128A11D9
:10004800C02983120313AF01AB1F2B282C28332898
:10005800AA09AB09AA0A0319AB0AAF01AF0AAD1F77
:10006800362837284028AC09AD09AC0A0319AD0A6F
:100078000130F4007408AF06B001B1012A082B045E
:100088000319472848287F28AE01AE0A56280130B0
:100098000310AA0DAB0DFF3E031D4C280130F400E0
:1000A8007408AE07AB1F59285A284B280130031093
:1000B800B00DB10DFF3E031D5B282B082D02031D5B
:1000C80067282A082C02031C6A286B2872282A0829
:1000D800AC022B08031CAD03AD0230140130031031
:1000E800AB0CAA0CFF3E031D73280130AE02031DA2
:1000F8007E287F285A282F080319832884288928CE
:10010800B009B109B00A0319B10A3108AB003008C7
:10011800AA0008000B1D91289228CF2883120313E8
:10012800860177087804031D9A289B28A8280612B8
:1001380006153A08203E8400831300088800013021
:10014800F7000030F800CC2877037804031DAD28A9
:10015800AE28BB28061186153808203E8400831374
:10016800000888000230F7000030F800CC28023080
:1001780077067804031DC128C228CC2806168611E4
:100188003608203E8400831300088800F701F80130
:10019800D93081000B110B1CD228D328E4288312F4
:1001A80003130618D828D928DD280130F000700874
:1001B80087078618E028E128E328013087020B101A
:1001C80073088A0072088400710E8300FE0E7E0E8A
:1001D800090083120313AF01AD1FF328F428FB288D
:1001E800AC09AD09AC0A0319AD0AAF01AF0AAB1FE0
:1001F800FE28FF280429AA09AB09AA0A0319AB0A91
:100208002A082B04031909290A293929AE01AE0A3B
:10021800182901300310AA0DAB0DFF3E031D0E294E
:100228000130F4007408AE07AB1F1B291C290D29E7
:100238002B082D02031D22292A082C02031C25291C
:1002480026292C292A08AC022B08031CAD03AD0271
:1002580001300310AB0CAA0CFF3E031D2D29013001
:10026800AE02031D382939291C292F0803193D29F5
:100278003E294329AC09AD09AC0A0319AD0A2D087A
:10028800AB002C08AA000800643083120313AA00EC
:100298000030AB007608AD007508AC000A128A1170
:1002A80025200A128A11831203132B08B7002A0883
:1002B800B6006430AA000030AB007608AD007508BF
:1002C800AC000A128A11ED200A128A118312031354
:1002D8002B08B5002A08B4000A30AA000030AB0089
:1002E8003508AD003408AC000A128A1125200A121C
:1002F8008A11831203132B08B9002A08B8000A30A0
:10030800AA000030AB003508AD003408AC000A1272
:100318008A11ED200A128A11831203132B08BB00DD
:100328002A08BA00080083160317880189010330D8
:10033800831603138600870188018312031386013D
:1003480087018801831603130F178F160F160F14D2
:100358008B178B160B118111811201158114011451
:1003680081131514951416149614F701F801D93051
:1003780083120313810008000A128A1197210A12B6
:100388008A110A128A1148210A128A118312031348
:100398000708B200B3013208F5003308F600C52992
:1003A8000A128A110E287E088A007F0882000A1223
:1003B8008A11D7210A128A118000840A04087D064E
:1003C80003190034FF0A0319FE0ADB293F340634F7
:1003D8005B344F3466346D347D3407347F3467348E
:04400E00C430FF3F7C
:00000001FF
