:060000000A128A11142906
:10000800F000030EF1000B1810200B191820710EC8
:100018008300F00E700E0900031383120618850A78
:10002800861885030B10080003138312B230810071
:100038000B11061186110612861206138613211853
:100048003128A118352821193928A1193D28211A44
:10005800412827088700061545282808870086159F
:1000680048282908880006164B282A08880086167A
:100078004E282B088800061751282C088800861758
:1000880054280130A10608000330A10608000630F4
:10009800A10608000C30A10608001830A1060800C7
:0400A800A1010800AA
:100200008A010A140F3982073F3406345B344F34B5
:1002100066346D347D3407347F346F3477347C3406
:1002200039345E34793471342A214E213F215521ED
:100230002121031383120508AF0078215D21662177
:100240001B2903138316161496140313831206082E
:100250000B10080003178316880189010313831606
:1002600085010330860087018801811315149514D8
:100270000313831285018601870188010800031397
:100280008316811281110115811401140313831245
:1002900003138312B23081000B110800031383167D
:1002A0000F168F160F170F140800031383128B17E6
:1002B0008B150B108B160B1108000508A0002008E9
:1002C0000F39A200200E0F39A300080022080021D8
:1002D000A70023080021A80024080021A900250860
:1002E0000021AA0026080021AB003F30AC00080026
:1002F000A60164302F020318A60A0318AF000318E2
:10030000792983210800A5010A302F020318A50AC4
:100310000318AF00031884298E210800A4010130BE
:0C032000AF020318A40A031C08008F2978
:04400E00C430FF3F7C
:00000001FF
