:060000000A128A11142906
:100200008A010A140F3982073F3406345B344F34B5
:1002100066346D347D3407347F346F3477347C3406
:1002200039345E3479347134242138213F21031369
:1002300083120B1D19294A21870A06184E21861898
:10024000552109105C21192903178316880189019A
:100250000313831602308600F03087008801FE30D9
:100260008900031383128601870188018901080030
:10027000031383160F168F160F130F1408000313A2
:100280008316811281110115811401140313831245
:100290004A2108000C3081000B11080006184E2975
:1002A000F00A700800218800080086185529F0031C
:1002B00070080021880008007008070203196121F6
:0802C000080009148701080081
:04400E00C430FF3F7C
:00000001FF
