:060000000A128A11142906
:10000800F000030EF1000B1912200C1827208C1891
:100018003020710E8300F00E700E09000313831256
:10002800FE3081000B110810881021181F282408A1
:100038008700081424282508870088142110080040
:100048000130A106080003138312EE308E008530BC
:100058008F000C10A00A080003138316F5309200D5
:10006800031383128C10A1183B28A1140800A110B7
:0200780008007E
:100200008A010A140F3982073F3406345B344F34B5
:1002100066346D347D3407347F346F3477347C3406
:1002200039345E34793471342221652131216C21D5
:1002300040215221031383127B21A11C8221A1188A
:100240008A211C2903178316880189010313831649
:100250008701081088100811031383128701880191
:1002600008000313831681128111011581140114F2
:100270000313831203138312FE3081000B11080055
:10028000031383121014901090111016901610136F
:100290000313831203138312EE308E0085308F0018
:1002A0000C10080003138312921412141215121763
:1002B0009216121692150313831603138316F53044
:1002C0009200031383128C100800031383160F127D
:1002D0008F120F170F140800031383128B170B17BD
:1002E0008B160B11031383160C148C140313831237
:1002F0000C108C10080020080F39A200200E0F39B6
:10030000A300080022080021A40023080021A50062
:0E031000081508000030A400A5000811080020
:04400E00C430FF3F7C
:00000001FF
