:060000000A128A11142906
:10000800F200030EF3000B1810200B191820730EC2
:100018008300F20E720E090003138312061C850A70
:10002800861C85030B10080003138312F00A48216D
:020038000800BE
:100200008A010A140F3982073F3406345B344F34B5
:1002100066346D347D3407347F346F3477347C3406
:1002200039345E3479347134272156213D215D21E2
:100230001E210313831265214C211B2903138316EE
:10024000161496140313831206080B1008000317E4
:1002500083168801890103138316F030850003306B
:1002600086008701880181131514951403138312E6
:100270008501860187018801080003138316811216
:100280008111011581140114031383124821080000
:10029000B23081000B11080064307002031D0800A9
:1002A000F40A740800218800F00108000313831683
:1002B0000F168F160F170F140800031383128B17D6
:1002C0008B150B108B160B110800050800218700F9
:0202D000080024
:04400E00C430FF3F7C
:00000001FF
